{
  "_format": "hh-sol-artifact-1",
  "contractName": "MyGovernor",
  "sourceName": "contracts/MyGovernor.sol",
  "abi": [
    {
      "inputs": [
        {
          "internalType": "contract ERC20VotesComp",
          "name": "_token",
          "type": "address"
        },
        {
          "internalType": "contract ICompoundTimelock",
          "name": "_timelock",
          "type": "address"
        }
      ],
      "stateMutability": "nonpayable",
      "type": "constructor"
    },
    {
      "anonymous": false,
      "inputs": [
        {
          "indexed": false,
          "internalType": "uint256",
          "name": "proposalId",
          "type": "uint256"
        }
      ],
      "name": "ProposalCanceled",
      "type": "event"
    },
    {
      "anonymous": false,
      "inputs": [
        {
          "indexed": false,
          "internalType": "uint256",
          "name": "proposalId",
          "type": "uint256"
        },
        {
          "indexed": false,
          "internalType": "address",
          "name": "proposer",
          "type": "address"
        },
        {
          "indexed": false,
          "internalType": "address[]",
          "name": "targets",
          "type": "address[]"
        },
        {
          "indexed": false,
          "internalType": "uint256[]",
          "name": "values",
          "type": "uint256[]"
        },
        {
          "indexed": false,
          "internalType": "string[]",
          "name": "signatures",
          "type": "string[]"
        },
        {
          "indexed": false,
          "internalType": "bytes[]",
          "name": "calldatas",
          "type": "bytes[]"
        },
        {
          "indexed": false,
          "internalType": "uint256",
          "name": "startBlock",
          "type": "uint256"
        },
        {
          "indexed": false,
          "internalType": "uint256",
          "name": "endBlock",
          "type": "uint256"
        },
        {
          "indexed": false,
          "internalType": "string",
          "name": "description",
          "type": "string"
        }
      ],
      "name": "ProposalCreated",
      "type": "event"
    },
    {
      "anonymous": false,
      "inputs": [
        {
          "indexed": false,
          "internalType": "uint256",
          "name": "proposalId",
          "type": "uint256"
        }
      ],
      "name": "ProposalExecuted",
      "type": "event"
    },
    {
      "anonymous": false,
      "inputs": [
        {
          "indexed": false,
          "internalType": "uint256",
          "name": "proposalId",
          "type": "uint256"
        },
        {
          "indexed": false,
          "internalType": "uint256",
          "name": "eta",
          "type": "uint256"
        }
      ],
      "name": "ProposalQueued",
      "type": "event"
    },
    {
      "anonymous": false,
      "inputs": [
        {
          "indexed": false,
          "internalType": "address",
          "name": "oldTimelock",
          "type": "address"
        },
        {
          "indexed": false,
          "internalType": "address",
          "name": "newTimelock",
          "type": "address"
        }
      ],
      "name": "TimelockChange",
      "type": "event"
    },
    {
      "anonymous": false,
      "inputs": [
        {
          "indexed": true,
          "internalType": "address",
          "name": "voter",
          "type": "address"
        },
        {
          "indexed": false,
          "internalType": "uint256",
          "name": "proposalId",
          "type": "uint256"
        },
        {
          "indexed": false,
          "internalType": "uint8",
          "name": "support",
          "type": "uint8"
        },
        {
          "indexed": false,
          "internalType": "uint256",
          "name": "weight",
          "type": "uint256"
        },
        {
          "indexed": false,
          "internalType": "string",
          "name": "reason",
          "type": "string"
        }
      ],
      "name": "VoteCast",
      "type": "event"
    },
    {
      "inputs": [],
      "name": "BALLOT_TYPEHASH",
      "outputs": [
        {
          "internalType": "bytes32",
          "name": "",
          "type": "bytes32"
        }
      ],
      "stateMutability": "view",
      "type": "function"
    },
    {
      "inputs": [],
      "name": "COUNTING_MODE",
      "outputs": [
        {
          "internalType": "string",
          "name": "",
          "type": "string"
        }
      ],
      "stateMutability": "pure",
      "type": "function"
    },
    {
      "inputs": [],
      "name": "__acceptAdmin",
      "outputs": [],
      "stateMutability": "nonpayable",
      "type": "function"
    },
    {
      "inputs": [
        {
          "internalType": "uint256",
          "name": "proposalId",
          "type": "uint256"
        }
      ],
      "name": "cancel",
      "outputs": [],
      "stateMutability": "nonpayable",
      "type": "function"
    },
    {
      "inputs": [
        {
          "internalType": "uint256",
          "name": "proposalId",
          "type": "uint256"
        },
        {
          "internalType": "uint8",
          "name": "support",
          "type": "uint8"
        }
      ],
      "name": "castVote",
      "outputs": [
        {
          "internalType": "uint256",
          "name": "",
          "type": "uint256"
        }
      ],
      "stateMutability": "nonpayable",
      "type": "function"
    },
    {
      "inputs": [
        {
          "internalType": "uint256",
          "name": "proposalId",
          "type": "uint256"
        },
        {
          "internalType": "uint8",
          "name": "support",
          "type": "uint8"
        },
        {
          "internalType": "uint8",
          "name": "v",
          "type": "uint8"
        },
        {
          "internalType": "bytes32",
          "name": "r",
          "type": "bytes32"
        },
        {
          "internalType": "bytes32",
          "name": "s",
          "type": "bytes32"
        }
      ],
      "name": "castVoteBySig",
      "outputs": [
        {
          "internalType": "uint256",
          "name": "",
          "type": "uint256"
        }
      ],
      "stateMutability": "nonpayable",
      "type": "function"
    },
    {
      "inputs": [
        {
          "internalType": "uint256",
          "name": "proposalId",
          "type": "uint256"
        },
        {
          "internalType": "uint8",
          "name": "support",
          "type": "uint8"
        },
        {
          "internalType": "string",
          "name": "reason",
          "type": "string"
        }
      ],
      "name": "castVoteWithReason",
      "outputs": [
        {
          "internalType": "uint256",
          "name": "",
          "type": "uint256"
        }
      ],
      "stateMutability": "nonpayable",
      "type": "function"
    },
    {
      "inputs": [
        {
          "internalType": "address[]",
          "name": "targets",
          "type": "address[]"
        },
        {
          "internalType": "uint256[]",
          "name": "values",
          "type": "uint256[]"
        },
        {
          "internalType": "bytes[]",
          "name": "calldatas",
          "type": "bytes[]"
        },
        {
          "internalType": "bytes32",
          "name": "descriptionHash",
          "type": "bytes32"
        }
      ],
      "name": "execute",
      "outputs": [
        {
          "internalType": "uint256",
          "name": "",
          "type": "uint256"
        }
      ],
      "stateMutability": "payable",
      "type": "function"
    },
    {
      "inputs": [
        {
          "internalType": "uint256",
          "name": "proposalId",
          "type": "uint256"
        }
      ],
      "name": "execute",
      "outputs": [],
      "stateMutability": "payable",
      "type": "function"
    },
    {
      "inputs": [
        {
          "internalType": "uint256",
          "name": "proposalId",
          "type": "uint256"
        }
      ],
      "name": "getActions",
      "outputs": [
        {
          "internalType": "address[]",
          "name": "targets",
          "type": "address[]"
        },
        {
          "internalType": "uint256[]",
          "name": "values",
          "type": "uint256[]"
        },
        {
          "internalType": "string[]",
          "name": "signatures",
          "type": "string[]"
        },
        {
          "internalType": "bytes[]",
          "name": "calldatas",
          "type": "bytes[]"
        }
      ],
      "stateMutability": "view",
      "type": "function"
    },
    {
      "inputs": [
        {
          "internalType": "uint256",
          "name": "proposalId",
          "type": "uint256"
        },
        {
          "internalType": "address",
          "name": "voter",
          "type": "address"
        }
      ],
      "name": "getReceipt",
      "outputs": [
        {
          "components": [
            {
              "internalType": "bool",
              "name": "hasVoted",
              "type": "bool"
            },
            {
              "internalType": "uint8",
              "name": "support",
              "type": "uint8"
            },
            {
              "internalType": "uint96",
              "name": "votes",
              "type": "uint96"
            }
          ],
          "internalType": "struct IGovernorCompatibilityBravo.Receipt",
          "name": "",
          "type": "tuple"
        }
      ],
      "stateMutability": "view",
      "type": "function"
    },
    {
      "inputs": [
        {
          "internalType": "address",
          "name": "account",
          "type": "address"
        },
        {
          "internalType": "uint256",
          "name": "blockNumber",
          "type": "uint256"
        }
      ],
      "name": "getVotes",
      "outputs": [
        {
          "internalType": "uint256",
          "name": "",
          "type": "uint256"
        }
      ],
      "stateMutability": "view",
      "type": "function"
    },
    {
      "inputs": [
        {
          "internalType": "uint256",
          "name": "proposalId",
          "type": "uint256"
        },
        {
          "internalType": "address",
          "name": "account",
          "type": "address"
        }
      ],
      "name": "hasVoted",
      "outputs": [
        {
          "internalType": "bool",
          "name": "",
          "type": "bool"
        }
      ],
      "stateMutability": "view",
      "type": "function"
    },
    {
      "inputs": [
        {
          "internalType": "address[]",
          "name": "targets",
          "type": "address[]"
        },
        {
          "internalType": "uint256[]",
          "name": "values",
          "type": "uint256[]"
        },
        {
          "internalType": "bytes[]",
          "name": "calldatas",
          "type": "bytes[]"
        },
        {
          "internalType": "bytes32",
          "name": "descriptionHash",
          "type": "bytes32"
        }
      ],
      "name": "hashProposal",
      "outputs": [
        {
          "internalType": "uint256",
          "name": "",
          "type": "uint256"
        }
      ],
      "stateMutability": "pure",
      "type": "function"
    },
    {
      "inputs": [],
      "name": "name",
      "outputs": [
        {
          "internalType": "string",
          "name": "",
          "type": "string"
        }
      ],
      "stateMutability": "view",
      "type": "function"
    },
    {
      "inputs": [
        {
          "internalType": "uint256",
          "name": "proposalId",
          "type": "uint256"
        }
      ],
      "name": "proposalDeadline",
      "outputs": [
        {
          "internalType": "uint256",
          "name": "",
          "type": "uint256"
        }
      ],
      "stateMutability": "view",
      "type": "function"
    },
    {
      "inputs": [
        {
          "internalType": "uint256",
          "name": "proposalId",
          "type": "uint256"
        }
      ],
      "name": "proposalEta",
      "outputs": [
        {
          "internalType": "uint256",
          "name": "",
          "type": "uint256"
        }
      ],
      "stateMutability": "view",
      "type": "function"
    },
    {
      "inputs": [
        {
          "internalType": "uint256",
          "name": "proposalId",
          "type": "uint256"
        }
      ],
      "name": "proposalSnapshot",
      "outputs": [
        {
          "internalType": "uint256",
          "name": "",
          "type": "uint256"
        }
      ],
      "stateMutability": "view",
      "type": "function"
    },
    {
      "inputs": [],
      "name": "proposalThreshold",
      "outputs": [
        {
          "internalType": "uint256",
          "name": "",
          "type": "uint256"
        }
      ],
      "stateMutability": "pure",
      "type": "function"
    },
    {
      "inputs": [
        {
          "internalType": "uint256",
          "name": "proposalId",
          "type": "uint256"
        }
      ],
      "name": "proposals",
      "outputs": [
        {
          "internalType": "uint256",
          "name": "id",
          "type": "uint256"
        },
        {
          "internalType": "address",
          "name": "proposer",
          "type": "address"
        },
        {
          "internalType": "uint256",
          "name": "eta",
          "type": "uint256"
        },
        {
          "internalType": "uint256",
          "name": "startBlock",
          "type": "uint256"
        },
        {
          "internalType": "uint256",
          "name": "endBlock",
          "type": "uint256"
        },
        {
          "internalType": "uint256",
          "name": "forVotes",
          "type": "uint256"
        },
        {
          "internalType": "uint256",
          "name": "againstVotes",
          "type": "uint256"
        },
        {
          "internalType": "uint256",
          "name": "abstainVotes",
          "type": "uint256"
        },
        {
          "internalType": "bool",
          "name": "canceled",
          "type": "bool"
        },
        {
          "internalType": "bool",
          "name": "executed",
          "type": "bool"
        }
      ],
      "stateMutability": "view",
      "type": "function"
    },
    {
      "inputs": [
        {
          "internalType": "address[]",
          "name": "targets",
          "type": "address[]"
        },
        {
          "internalType": "uint256[]",
          "name": "values",
          "type": "uint256[]"
        },
        {
          "internalType": "bytes[]",
          "name": "calldatas",
          "type": "bytes[]"
        },
        {
          "internalType": "string",
          "name": "description",
          "type": "string"
        }
      ],
      "name": "propose",
      "outputs": [
        {
          "internalType": "uint256",
          "name": "",
          "type": "uint256"
        }
      ],
      "stateMutability": "nonpayable",
      "type": "function"
    },
    {
      "inputs": [
        {
          "internalType": "address[]",
          "name": "targets",
          "type": "address[]"
        },
        {
          "internalType": "uint256[]",
          "name": "values",
          "type": "uint256[]"
        },
        {
          "internalType": "string[]",
          "name": "signatures",
          "type": "string[]"
        },
        {
          "internalType": "bytes[]",
          "name": "calldatas",
          "type": "bytes[]"
        },
        {
          "internalType": "string",
          "name": "description",
          "type": "string"
        }
      ],
      "name": "propose",
      "outputs": [
        {
          "internalType": "uint256",
          "name": "",
          "type": "uint256"
        }
      ],
      "stateMutability": "nonpayable",
      "type": "function"
    },
    {
      "inputs": [
        {
          "internalType": "address[]",
          "name": "targets",
          "type": "address[]"
        },
        {
          "internalType": "uint256[]",
          "name": "values",
          "type": "uint256[]"
        },
        {
          "internalType": "bytes[]",
          "name": "calldatas",
          "type": "bytes[]"
        },
        {
          "internalType": "bytes32",
          "name": "descriptionHash",
          "type": "bytes32"
        }
      ],
      "name": "queue",
      "outputs": [
        {
          "internalType": "uint256",
          "name": "",
          "type": "uint256"
        }
      ],
      "stateMutability": "nonpayable",
      "type": "function"
    },
    {
      "inputs": [
        {
          "internalType": "uint256",
          "name": "proposalId",
          "type": "uint256"
        }
      ],
      "name": "queue",
      "outputs": [],
      "stateMutability": "nonpayable",
      "type": "function"
    },
    {
      "inputs": [
        {
          "internalType": "uint256",
          "name": "blockNumber",
          "type": "uint256"
        }
      ],
      "name": "quorum",
      "outputs": [
        {
          "internalType": "uint256",
          "name": "",
          "type": "uint256"
        }
      ],
      "stateMutability": "pure",
      "type": "function"
    },
    {
      "inputs": [],
      "name": "quorumVotes",
      "outputs": [
        {
          "internalType": "uint256",
          "name": "",
          "type": "uint256"
        }
      ],
      "stateMutability": "view",
      "type": "function"
    },
    {
      "inputs": [
        {
          "internalType": "uint256",
          "name": "proposalId",
          "type": "uint256"
        }
      ],
      "name": "state",
      "outputs": [
        {
          "internalType": "enum IGovernor.ProposalState",
          "name": "",
          "type": "uint8"
        }
      ],
      "stateMutability": "view",
      "type": "function"
    },
    {
      "inputs": [
        {
          "internalType": "bytes4",
          "name": "interfaceId",
          "type": "bytes4"
        }
      ],
      "name": "supportsInterface",
      "outputs": [
        {
          "internalType": "bool",
          "name": "",
          "type": "bool"
        }
      ],
      "stateMutability": "view",
      "type": "function"
    },
    {
      "inputs": [],
      "name": "timelock",
      "outputs": [
        {
          "internalType": "address",
          "name": "",
          "type": "address"
        }
      ],
      "stateMutability": "view",
      "type": "function"
    },
    {
      "inputs": [],
      "name": "token",
      "outputs": [
        {
          "internalType": "contract ERC20VotesComp",
          "name": "",
          "type": "address"
        }
      ],
      "stateMutability": "view",
      "type": "function"
    },
    {
      "inputs": [
        {
          "internalType": "contract ICompoundTimelock",
          "name": "newTimelock",
          "type": "address"
        }
      ],
      "name": "updateTimelock",
      "outputs": [],
      "stateMutability": "nonpayable",
      "type": "function"
    },
    {
      "inputs": [],
      "name": "version",
      "outputs": [
        {
          "internalType": "string",
          "name": "",
          "type": "string"
        }
      ],
      "stateMutability": "view",
      "type": "function"
    },
    {
      "inputs": [],
      "name": "votingDelay",
      "outputs": [
        {
          "internalType": "uint256",
          "name": "",
          "type": "uint256"
        }
      ],
      "stateMutability": "pure",
      "type": "function"
    },
    {
      "inputs": [],
      "name": "votingPeriod",
      "outputs": [
        {
          "internalType": "uint256",
          "name": "",
          "type": "uint256"
        }
      ],
      "stateMutability": "pure",
      "type": "function"
    }
  ],
  "bytecode": "0x6101406040523480156200001257600080fd5b50604051620043653803806200436583398101604081905262000035916200026b565b80826040518060400160405280600a81526020016926bca3b7bb32b93737b960b11b815250806200006b6200012860201b60201c565b815160209283012081519183019190912060c082815260e08290524660a0818152604080517f8b73c3c69bb8fe3d512ecc4cf759cc79239f7b179b0ffacaa9a75d522b39400f818901819052818301979097526060810195909552608080860193909352308583015280518086039092018252939092019092528051908401209052610100528151620001059160009190840190620001ac565b50506001600160a01b0316610120526200011f8162000143565b505050620002e7565b6040805180820190915260018152603160f81b602082015290565b600354604080516001600160a01b03928316815291831660208301527f08f74ea46ef7894f65eabfb5e6e695de773a000b47c529ab559178069b226401910160405180910390a1600380546001600160a01b0319166001600160a01b0392909216919091179055565b828054620001ba90620002aa565b90600052602060002090601f016020900481019282620001de576000855562000229565b82601f10620001f957805160ff191683800117855562000229565b8280016001018555821562000229579182015b82811115620002295782518255916020019190600101906200020c565b50620002379291506200023b565b5090565b5b808211156200023757600081556001016200023c565b6001600160a01b03811681146200026857600080fd5b50565b600080604083850312156200027f57600080fd5b82516200028c8162000252565b60208401519092506200029f8162000252565b809150509250929050565b600181811c90821680620002bf57607f821691505b60208210811415620002e157634e487b7160e01b600052602260045260246000fd5b50919050565b60805160a05160c05160e05161010051610120516140276200033e600039600081816107b401526122920152600061254c0152600061259b01526000612576015260006124fa0152600061252301526140276000f3fe6080604052600436106102195760003560e01c80637d5e81e21161011d578063da95691a116100b0578063e23a9a521161007f578063f8ce560a11610064578063f8ce560a14610781578063fc0c546a146107a2578063fe0d94c1146107d657600080fd5b8063e23a9a521461068d578063eb9019d41461076157600080fd5b8063da95691a146105d3578063dd4e2ba5146105f3578063ddf0b00914610639578063deaaa7cc1461065957600080fd5b8063b9a61961116100ec578063b9a619611461054c578063c01f9e3714610561578063c59057e414610581578063d33219b4146105a157600080fd5b80637d5e81e2146104d8578063a890c910146104f8578063ab58fb8e14610518578063b58131b01461053857600080fd5b8063328dd982116101b057806340e58ee51161017f57806354fd4d501161016457806354fd4d501461046e57806356781388146104985780637b3c71d3146104b857600080fd5b806340e58ee514610402578063438596321461042457600080fd5b8063328dd982146103715780633932abb1146103a15780633bccf4fd146103b55780633e4f49e6146103d557600080fd5b8063160cbed7116101ec578063160cbed71461030957806324bc1a64146103295780632656227d1461033e5780632d63f6931461035157600080fd5b8063013cf08b1461021e57806301ffc9a71461029957806302a251a3146102c957806306fdde03146102e7575b600080fd5b34801561022a57600080fd5b5061023e610239366004613471565b6107e9565b604080519a8b526001600160a01b0390991660208b0152978901969096526060880194909452608087019290925260a086015260c085015260e084015215156101008301521515610120820152610140015b60405180910390f35b3480156102a557600080fd5b506102b96102b436600461348a565b610892565b6040519015158152602001610290565b3480156102d557600080fd5b5060445b604051908152602001610290565b3480156102f357600080fd5b506102fc6108a3565b604051610290919061350c565b34801561031557600080fd5b506102d9610324366004613764565b610935565b34801561033557600080fd5b506102d9610d35565b6102d961034c366004613764565b610d4a565b34801561035d57600080fd5b506102d961036c366004613471565b610e57565b34801561037d57600080fd5b5061039161038c366004613471565b610e90565b60405161029094939291906138ba565b3480156103ad57600080fd5b5060016102d9565b3480156103c157600080fd5b506102d96103d036600461391d565b611121565b3480156103e157600080fd5b506103f56103f0366004613471565b6111b5565b6040516102909190613981565b34801561040e57600080fd5b5061042261041d366004613471565b6111c0565b005b34801561043057600080fd5b506102b961043f3660046139a9565b60008281526002602090815260408083206001600160a01b038516845260080190915290205460ff1692915050565b34801561047a57600080fd5b506040805180820190915260018152603160f81b60208201526102fc565b3480156104a457600080fd5b506102d96104b33660046139d9565b6114e8565b3480156104c457600080fd5b506102d96104d3366004613a05565b611511565b3480156104e457600080fd5b506102d96104f3366004613aac565b611563565b34801561050457600080fd5b50610422610513366004613b59565b61157a565b34801561052457600080fd5b506102d9610533366004613471565b6115ee565b34801561054457600080fd5b5060026102d9565b34801561055857600080fd5b5061042261161b565b34801561056d57600080fd5b506102d961057c366004613471565b611685565b34801561058d57600080fd5b506102d961059c366004613764565b6116b5565b3480156105ad57600080fd5b506003546001600160a01b03165b6040516001600160a01b039091168152602001610290565b3480156105df57600080fd5b506102d96105ee366004613bf6565b6116ef565b3480156105ff57600080fd5b5060408051808201909152601a81527f737570706f72743d627261766f2671756f72756d3d627261766f00000000000060208201526102fc565b34801561064557600080fd5b50610422610654366004613471565b611714565b34801561066557600080fd5b506102d97f150214d74d59b7d1e90c73fc22ef3d991dd0a76b046543d4d80ab92d2a50328f81565b34801561069957600080fd5b5061072c6106a83660046139a9565b60408051606081018252600080825260208201819052918101919091525060009182526002602090815260408084206001600160a01b0393909316845260089092018152918190208151606081018352905460ff8082161515835261010082041693820193909352620100009092046bffffffffffffffffffffffff169082015290565b6040805182511515815260208084015160ff1690820152918101516bffffffffffffffffffffffff1690820152606001610290565b34801561076d57600080fd5b506102d961077c366004613cc8565b611982565b34801561078d57600080fd5b506102d961079c366004613471565b50600390565b3480156107ae57600080fd5b506105bb7f000000000000000000000000000000000000000000000000000000000000000081565b6104226107e4366004613471565b611995565b80600080808080808080806107fd8a6115ee565b97506108088b610e57565b96506108138b611685565b60008c815260026020526040812080546005820154600683015460078401546001600160a01b039093169e50949a5098509296509194506108538d6111b5565b905060028160078111156108695761086961396b565b14935060078160078111156108805761088061396b565b14925050509193959799509193959799565b600061089d82611c03565b92915050565b6060600080546108b290613cf4565b80601f01602080910402602001604051908101604052809291908181526020018280546108de90613cf4565b801561092b5780601f106109005761010080835404028352916020019161092b565b820191906000526020600020905b81548152906001019060200180831161090e57829003601f168201915b5050505050905090565b600080610944868686866116b5565b90506004610951826111b5565b60078111156109625761096261396b565b146109be5760405162461bcd60e51b815260206004820152602160248201527f476f7665726e6f723a2070726f706f73616c206e6f74207375636365737366756044820152601b60fa1b60648201526084015b60405180910390fd5b60035460408051630d48571f60e31b815290516000926001600160a01b031691636a42b8f8916004808301926020929190829003018186803b158015610a0357600080fd5b505afa158015610a17573d6000803e3d6000fd5b505050506040513d601f19601f82011682018060405250810190610a3b9190613d29565b610a459042613d58565b9050610a81610a5382611c28565b600084815260046020526040902090815467ffffffffffffffff191667ffffffffffffffff91909116179055565b60005b8751811015610cf05760035488516001600160a01b039091169063f2b06537908a9084908110610ab657610ab6613d70565b6020026020010151898481518110610ad057610ad0613d70565b6020026020010151898581518110610aea57610aea613d70565b602002602001015186604051602001610b069493929190613d86565b604051602081830303815290604052805190602001206040518263ffffffff1660e01b8152600401610b3a91815260200190565b60206040518083038186803b158015610b5257600080fd5b505afa158015610b66573d6000803e3d6000fd5b505050506040513d601f19601f82011682018060405250810190610b8a9190613dcd565b15610c085760405162461bcd60e51b815260206004820152604260248201527f476f7665726e6f7254696d656c6f636b436f6d706f756e643a206964656e746960448201527f63616c2070726f706f73616c20616374696f6e20616c72656164792071756575606482015261195960f21b608482015260a4016109b5565b60035488516001600160a01b0390911690633a66f901908a9084908110610c3157610c31613d70565b6020026020010151898481518110610c4b57610c4b613d70565b6020026020010151898581518110610c6557610c65613d70565b6020026020010151866040518563ffffffff1660e01b8152600401610c8d9493929190613d86565b602060405180830381600087803b158015610ca757600080fd5b505af1158015610cbb573d6000803e3d6000fd5b505050506040513d601f19601f82011682018060405250810190610cdf9190613d29565b50610ce981613def565b9050610a84565b5060408051838152602081018390527f9a2e42fd6722813d69113e7d0079d3d940171428df7373df9c7f7617cfda289291015b60405180910390a15095945050505050565b6000610d4561079c600143613e0a565b905090565b600080610d59868686866116b5565b90506000610d66826111b5565b90506004816007811115610d7c57610d7c61396b565b1480610d9957506005816007811115610d9757610d9761396b565b145b610def5760405162461bcd60e51b815260206004820152602160248201527f476f7665726e6f723a2070726f706f73616c206e6f74207375636365737366756044820152601b60fa1b60648201526084016109b5565b600082815260016020818152604092839020600201805460ff191690921790915590518381527f712ae1383f79ac853f8d882153778e0260ef8f03b504e2866e0593e04d2b291f910160405180910390a1610e4d8288888888611cac565b5095945050505050565b600081815260016020908152604080832081519283019091525467ffffffffffffffff16908190525b67ffffffffffffffff1692915050565b60608060608060006002600087815260200190815260200160002090508060010181600201826003018360040183805480602002602001604051908101604052809291908181526020018280548015610f1257602002820191906000526020600020905b81546001600160a01b03168152600190910190602001808311610ef4575b5050505050935082805480602002602001604051908101604052809291908181526020018280548015610f6457602002820191906000526020600020905b815481526020019060010190808311610f50575b5050505050925081805480602002602001604051908101604052809291908181526020016000905b82821015611038578382906000526020600020018054610fab90613cf4565b80601f0160208091040260200160405190810160405280929190818152602001828054610fd790613cf4565b80156110245780601f10610ff957610100808354040283529160200191611024565b820191906000526020600020905b81548152906001019060200180831161100757829003601f168201915b505050505081526020019060010190610f8c565b50505050915080805480602002602001604051908101604052809291908181526020016000905b8282101561110b57838290600052602060002001805461107e90613cf4565b80601f01602080910402602001604051908101604052809291908181526020018280546110aa90613cf4565b80156110f75780601f106110cc576101008083540402835291602001916110f7565b820191906000526020600020905b8154815290600101906020018083116110da57829003601f168201915b50505050508152602001906001019061105f565b5050505090509450945094509450509193509193565b604080517f150214d74d59b7d1e90c73fc22ef3d991dd0a76b046543d4d80ab92d2a50328f602082015290810186905260ff85166060820152600090819061118d906111859060800160405160208183030381529060405280519060200120611cc0565b868686611d0e565b90506111aa87828860405180602001604052806000815250611d2c565b979650505050505050565b600061089d82611e38565b600081815260026020526040902080546001600160a01b0316336001600160a01b03161480611208575060028154611206906001600160a01b031661077c600143613e0a565b105b61127a5760405162461bcd60e51b815260206004820152602760248201527f476f7665726e6f72427261766f3a2070726f706f7365722061626f766520746860448201527f726573686f6c640000000000000000000000000000000000000000000000000060648201526084016109b5565b6114e3816001018054806020026020016040519081016040528092919081815260200182805480156112d557602002820191906000526020600020905b81546001600160a01b031681526001909101906020018083116112b7575b50505050508260020180548060200260200160405190810160405280929190818152602001828054801561132857602002820191906000526020600020905b815481526020019060010190808311611314575b50505050506114d984600301805480602002602001604051908101604052809291908181526020016000905b8282101561140057838290600052602060002001805461137390613cf4565b80601f016020809104026020016040519081016040528092919081815260200182805461139f90613cf4565b80156113ec5780601f106113c1576101008083540402835291602001916113ec565b820191906000526020600020905b8154815290600101906020018083116113cf57829003601f168201915b505050505081526020019060010190611354565b50505060048701805460408051602080840282018101909252828152935060009084015b828210156114d057838290600052602060002001805461144390613cf4565b80601f016020809104026020016040519081016040528092919081815260200182805461146f90613cf4565b80156114bc5780601f10611491576101008083540402835291602001916114bc565b820191906000526020600020905b81548152906001019060200180831161149f57829003601f168201915b505050505081526020019060010190611424565b50505050611f28565b846009015461209e565b505050565b60008033905061150984828560405180602001604052806000815250611d2c565b949350505050565b60008033905061155986828787878080601f016020809104026020016040519081016040528093929190818152602001838380828437600092019190915250611d2c92505050565b9695505050505050565b6000611571858585856120ac565b95945050505050565b611582612115565b6001600160a01b0316336001600160a01b0316146115e25760405162461bcd60e51b815260206004820152601860248201527f476f7665726e6f723a206f6e6c79476f7665726e616e6365000000000000000060448201526064016109b5565b6115eb81612129565b50565b600081815260046020908152604080832081519283019091525467ffffffffffffffff1690819052610e80565b600360009054906101000a90046001600160a01b03166001600160a01b0316630e18b6816040518163ffffffff1660e01b8152600401600060405180830381600087803b15801561166b57600080fd5b505af115801561167f573d6000803e3d6000fd5b50505050565b600081815260016020818152604080842081519283019091529091015467ffffffffffffffff1690819052610e80565b6000848484846040516020016116ce9493929190613e21565b60408051601f19818403018152919052805160209091012095945050505050565b60006116ff33878787878761219f565b611559868661170e8787611f28565b85611563565b60008181526002602090815260409182902060018101805484518185028101850190955280855291936114e39390929083018282801561177d57602002820191906000526020600020905b81546001600160a01b0316815260019091019060200180831161175f575b5050505050826002018054806020026020016040519081016040528092919081815260200182805480156117d057602002820191906000526020600020905b8154815260200190600101908083116117bc575b505050505061197884600301805480602002602001604051908101604052809291908181526020016000905b828210156118a857838290600052602060002001805461181b90613cf4565b80601f016020809104026020016040519081016040528092919081815260200182805461184790613cf4565b80156118945780601f1061186957610100808354040283529160200191611894565b820191906000526020600020905b81548152906001019060200180831161187757829003601f168201915b5050505050815260200190600101906117fc565b50505060048701805460408051602080840282018101909252828152935060009084015b828210156114d05783829060005260206000200180546118eb90613cf4565b80601f016020809104026020016040519081016040528092919081815260200182805461191790613cf4565b80156119645780601f1061193957610100808354040283529160200191611964565b820191906000526020600020905b81548152906001019060200180831161194757829003601f168201915b5050505050815260200190600101906118cc565b8460090154610935565b600061198e8383612269565b9392505050565b60008181526002602090815260409182902060018101805484518185028101850190955280855291936114e3939092908301828280156119fe57602002820191906000526020600020905b81546001600160a01b031681526001909101906020018083116119e0575b505050505082600201805480602002602001604051908101604052809291908181526020018280548015611a5157602002820191906000526020600020905b815481526020019060010190808311611a3d575b5050505050611bf984600301805480602002602001604051908101604052809291908181526020016000905b82821015611b29578382906000526020600020018054611a9c90613cf4565b80601f0160208091040260200160405190810160405280929190818152602001828054611ac890613cf4565b8015611b155780601f10611aea57610100808354040283529160200191611b15565b820191906000526020600020905b815481529060010190602001808311611af857829003601f168201915b505050505081526020019060010190611a7d565b50505060048701805460408051602080840282018101909252828152935060009084015b828210156114d0578382906000526020600020018054611b6c90613cf4565b80601f0160208091040260200160405190810160405280929190818152602001828054611b9890613cf4565b8015611be55780601f10611bba57610100808354040283529160200191611be5565b820191906000526020600020905b815481529060010190602001808311611bc857829003601f168201915b505050505081526020019060010190611b4d565b8460090154610d4a565b60006001600160e01b03198216636e665ced60e01b148061089d575061089d82612323565b600067ffffffffffffffff821115611ca85760405162461bcd60e51b815260206004820152602660248201527f53616665436173743a2076616c756520646f65736e27742066697420696e203660448201527f342062697473000000000000000000000000000000000000000000000000000060648201526084016109b5565b5090565b611cb98585858585612358565b5050505050565b600061089d611ccd6124f6565b8360405161190160f01b6020820152602281018390526042810182905260009060620160405160208183030381529060405280519060200120905092915050565b6000806000611d1f878787876125e9565b91509150610e4d816126d6565b6000848152600160208190526040822090611d46876111b5565b6007811115611d5757611d5761396b565b14611db05760405162461bcd60e51b815260206004820152602360248201527f476f7665726e6f723a20766f7465206e6f742063757272656e746c792061637460448201526269766560e81b60648201526084016109b5565b6040805160208101909152815467ffffffffffffffff1690819052600090611dd9908790611982565b9050611de787878784612891565b856001600160a01b03167fb8e138887d0aa13bab447e82de9d5c1777041ecd21ca36ba824ff1e6c07ddda488878488604051611e269493929190613e6c565b60405180910390a29695505050505050565b600080611e4483612a5b565b90506004816007811115611e5a57611e5a61396b565b14611e655792915050565b6000611e70846115ee565b905080611e7e575092915050565b600360009054906101000a90046001600160a01b03166001600160a01b031663c1a287e26040518163ffffffff1660e01b815260040160206040518083038186803b158015611ecc57600080fd5b505afa158015611ee0573d6000803e3d6000fd5b505050506040513d601f19601f82011682018060405250810190611f049190613d29565b611f0e9082613d58565b4210611f1e575060069392505050565b5060059392505050565b60606000825167ffffffffffffffff811115611f4657611f4661351f565b604051908082528060200260200182016040528015611f7957816020015b6060815260200190600190039081611f645790505b50905060005b845181101561209657848181518110611f9a57611f9a613d70565b60200260200101515160001461204d57848181518110611fbc57611fbc613d70565b6020026020010151848281518110611fd657611fd6613d70565b6020026020010151604051602401611fee919061350c565b60408051601f19818403018152908290529161200991613e94565b6040519081900390206020820180517bffffffffffffffffffffffffffffffffffffffffffffffffffffffff166001600160e01b0319909216919091179052612068565b83818151811061205f5761205f613d70565b60200260200101515b82828151811061207a5761207a613d70565b60200260200101819052508061208f90613def565b9050611f7f565b509392505050565b600061157185858585612bc4565b6000612109338686865167ffffffffffffffff8111156120ce576120ce61351f565b60405190808252806020026020018201604052801561210157816020015b60608152602001906001900390816120ec5790505b50878761219f565b61157185858585612cdf565b6000610d456003546001600160a01b031690565b600354604080516001600160a01b03928316815291831660208301527f08f74ea46ef7894f65eabfb5e6e695de773a000b47c529ab559178069b226401910160405180910390a16003805473ffffffffffffffffffffffffffffffffffffffff19166001600160a01b0392909216919091179055565b8051602082012060006121bd87876121b78888611f28565b856116b5565b600081815260026020526040902060098101549192509061225e57805473ffffffffffffffffffffffffffffffffffffffff19166001600160a01b038a16178155875161221390600183019060208b019061321a565b50865161222990600283019060208a0190613288565b50855161223f90600383019060208901906132c3565b508451612255906004830190602088019061331c565b50600981018390555b505050505050505050565b60405163782d6fe160e01b81526001600160a01b038381166004830152602482018390526000917f00000000000000000000000000000000000000000000000000000000000000009091169063782d6fe19060440160206040518083038186803b1580156122d657600080fd5b505afa1580156122ea573d6000803e3d6000fd5b505050506040513d601f19601f8201168201806040525081019061230e9190613eb0565b6bffffffffffffffffffffffff169392505050565b60006001600160e01b0319821663bf26d89760e01b148061089d57506301ffc9a760e01b6001600160e01b031983161461089d565b6000612363866115ee565b9050600081116123db5760405162461bcd60e51b815260206004820152603160248201527f476f7665726e6f7254696d656c6f636b436f6d706f756e643a2070726f706f7360448201527f616c206e6f74207965742071756575656400000000000000000000000000000060648201526084016109b5565b60005b85518110156124ed5760035485516001600160a01b0390911690630825f38f9087908490811061241057612410613d70565b602002602001015188848151811061242a5761242a613d70565b602002602001015188858151811061244457612444613d70565b602002602001015188868151811061245e5761245e613d70565b6020026020010151876040518663ffffffff1660e01b81526004016124869493929190613d86565b6000604051808303818588803b15801561249f57600080fd5b505af11580156124b3573d6000803e3d6000fd5b50505050506040513d6000823e601f3d908101601f191682016040526124dc9190810190613ede565b506124e681613def565b90506123de565b50505050505050565b60007f000000000000000000000000000000000000000000000000000000000000000046141561254557507f000000000000000000000000000000000000000000000000000000000000000090565b50604080517f00000000000000000000000000000000000000000000000000000000000000006020808301919091527f0000000000000000000000000000000000000000000000000000000000000000828401527f000000000000000000000000000000000000000000000000000000000000000060608301524660808301523060a0808401919091528351808403909101815260c0909201909252805191012090565b6000807f7fffffffffffffffffffffffffffffff5d576e7357a4501ddfe92f46681b20a083111561262057506000905060036126cd565b8460ff16601b1415801561263857508460ff16601c14155b1561264957506000905060046126cd565b6040805160008082526020820180845289905260ff881692820192909252606081018690526080810185905260019060a0016020604051602081039080840390855afa15801561269d573d6000803e3d6000fd5b5050604051601f1901519150506001600160a01b0381166126c6576000600192509250506126cd565b9150600090505b94509492505050565b60008160048111156126ea576126ea61396b565b14156126f35750565b60018160048111156127075761270761396b565b14156127555760405162461bcd60e51b815260206004820152601860248201527f45434453413a20696e76616c6964207369676e6174757265000000000000000060448201526064016109b5565b60028160048111156127695761276961396b565b14156127b75760405162461bcd60e51b815260206004820152601f60248201527f45434453413a20696e76616c6964207369676e6174757265206c656e6774680060448201526064016109b5565b60038160048111156127cb576127cb61396b565b14156128245760405162461bcd60e51b815260206004820152602260248201527f45434453413a20696e76616c6964207369676e6174757265202773272076616c604482015261756560f01b60648201526084016109b5565b60048160048111156128385761283861396b565b14156115eb5760405162461bcd60e51b815260206004820152602260248201527f45434453413a20696e76616c6964207369676e6174757265202776272076616c604482015261756560f01b60648201526084016109b5565b60008481526002602090815260408083206001600160a01b038716845260088101909252909120805460ff16156129305760405162461bcd60e51b815260206004820152602d60248201527f476f7665726e6f72436f6d7061746962696c697479427261766f3a20766f746560448201527f20616c726561647920636173740000000000000000000000000000000000000060648201526084016109b5565b805460ff85166101000261ffff1990911617600117815561295083612d7e565b81546bffffffffffffffffffffffff9190911662010000026dffffffffffffffffffffffff00001990911617815560ff84166129a5578282600601600082825461299a9190613d58565b90915550612a539050565b60ff8416600114156129c5578282600501600082825461299a9190613d58565b60ff8416600214156129e5578282600701600082825461299a9190613d58565b60405162461bcd60e51b815260206004820152602d60248201527f476f7665726e6f72436f6d7061746962696c697479427261766f3a20696e766160448201527f6c696420766f746520747970650000000000000000000000000000000000000060648201526084016109b5565b505050505050565b6000818152600160208181526040808420815160a081018352815467ffffffffffffffff90811660808301908152825283518086018552958301541685529283019390935260029092015460ff80821615801594840194909452610100909104161515606082015290612ad15750600792915050565b806060015115612ae45750600292915050565b8051514367ffffffffffffffff9091161115612b035750600092915050565b6020810151514367ffffffffffffffff9091161115612b255750600192915050565b612b328160200151612e02565b15612b7657612b4083612e33565b8015612b62575060008381526002602052604090206006810154600590910154115b612b6d57600361198e565b60049392505050565b60405162461bcd60e51b815260206004820152601d60248201527f476f7665726e6f723a20756e6b6e6f776e2070726f706f73616c20696400000060448201526064016109b5565b50919050565b600080612bd386868686612e5a565b90506000612be0826115ee565b90508015610e4d5760005b8751811015612cbc5760035488516001600160a01b039091169063591fcdfe908a9084908110612c1d57612c1d613d70565b6020026020010151898481518110612c3757612c37613d70565b6020026020010151898581518110612c5157612c51613d70565b6020026020010151866040518563ffffffff1660e01b8152600401612c799493929190613d86565b600060405180830381600087803b158015612c9357600080fd5b505af1158015612ca7573d6000803e3d6000fd5b5050505080612cb590613def565b9050612beb565b506000828152600460205260409020805467ffffffffffffffff19169055610e4d565b60006002612cf23361077c600143613e0a565b1015612d725760405162461bcd60e51b815260206004820152604360248201527f476f7665726e6f72436f6d7061746962696c697479427261766f3a2070726f7060448201527f6f73657220766f7465732062656c6f772070726f706f73616c207468726573686064820152621bdb1960ea1b608482015260a4016109b5565b61157185858585612f66565b60006bffffffffffffffffffffffff821115611ca85760405162461bcd60e51b815260206004820152602660248201527f53616665436173743a2076616c756520646f65736e27742066697420696e203960448201527f362062697473000000000000000000000000000000000000000000000000000060648201526084016109b5565b6000612e18825167ffffffffffffffff16151590565b801561089d575050514367ffffffffffffffff909116111590565b60008181526002602052604081206005810154612e5261079c85610e57565b109392505050565b600080612e69868686866116b5565b90506000612e76826111b5565b90506002816007811115612e8c57612e8c61396b565b14158015612eac57506006816007811115612ea957612ea961396b565b14155b8015612eca57506007816007811115612ec757612ec761396b565b14155b612f165760405162461bcd60e51b815260206004820152601d60248201527f476f7665726e6f723a2070726f706f73616c206e6f742061637469766500000060448201526064016109b5565b60008281526001602052604090819020600201805461ff001916610100179055517f789cf55be980739dad1d0699b93b58e806b51c9d96619bfa8fe0a28abaa7b30c90610d239084815260200190565b600080612f7c86868686805190602001206116b5565b90508451865114612fd95760405162461bcd60e51b815260206004820152602160248201527f476f7665726e6f723a20696e76616c69642070726f706f73616c206c656e67746044820152600d60fb1b60648201526084016109b5565b83518651146130345760405162461bcd60e51b815260206004820152602160248201527f476f7665726e6f723a20696e76616c69642070726f706f73616c206c656e67746044820152600d60fb1b60648201526084016109b5565b60008651116130855760405162461bcd60e51b815260206004820152601860248201527f476f7665726e6f723a20656d7074792070726f706f73616c000000000000000060448201526064016109b5565b6000818152600160209081526040918290208251918201909252815467ffffffffffffffff1690819052156131065760405162461bcd60e51b815260206004820152602160248201527f476f7665726e6f723a2070726f706f73616c20616c72656164792065786973746044820152607360f81b60648201526084016109b5565b60006131126001611c28565b61311b43611c28565b6131259190613f4c565b905060006131336044611c28565b61313d9083613f4c565b835467ffffffffffffffff191667ffffffffffffffff8416178455905060018301805467ffffffffffffffff191667ffffffffffffffff83161790557f7d84a6263ae0d98d3329bd7b46bb4e8d6f98cd35a7adb45c274c8b7fd5ebd5e084338b8b8d5167ffffffffffffffff8111156131b8576131b861351f565b6040519080825280602002602001820160405280156131eb57816020015b60608152602001906001900390816131d65790505b508c88888e60405161320599989796959493929190613f78565b60405180910390a15091979650505050505050565b82805482825590600052602060002090810192821561327c579160200282015b8281111561327c578251825473ffffffffffffffffffffffffffffffffffffffff19166001600160a01b0390911617825560209092019160019091019061323a565b50611ca8929150613375565b82805482825590600052602060002090810192821561327c579160200282015b8281111561327c5782518255916020019190600101906132a8565b828054828255906000526020600020908101928215613310579160200282015b82811115613310578251805161330091849160209091019061338a565b50916020019190600101906132e3565b50611ca89291506133fd565b828054828255906000526020600020908101928215613369579160200282015b82811115613369578251805161335991849160209091019061338a565b509160200191906001019061333c565b50611ca892915061341a565b5b80821115611ca85760008155600101613376565b82805461339690613cf4565b90600052602060002090601f0160209004810192826133b8576000855561327c565b82601f106133d157805160ff191683800117855561327c565b8280016001018555821561327c579182018281111561327c5782518255916020019190600101906132a8565b80821115611ca85760006134118282613437565b506001016133fd565b80821115611ca857600061342e8282613437565b5060010161341a565b50805461344390613cf4565b6000825580601f10613453575050565b601f0160209004906000526020600020908101906115eb9190613375565b60006020828403121561348357600080fd5b5035919050565b60006020828403121561349c57600080fd5b81356001600160e01b03198116811461198e57600080fd5b60005b838110156134cf5781810151838201526020016134b7565b8381111561167f5750506000910152565b600081518084526134f88160208601602086016134b4565b601f01601f19169290920160200192915050565b60208152600061198e60208301846134e0565b634e487b7160e01b600052604160045260246000fd5b604051601f8201601f1916810167ffffffffffffffff8111828210171561355e5761355e61351f565b604052919050565b600067ffffffffffffffff8211156135805761358061351f565b5060051b60200190565b6001600160a01b03811681146115eb57600080fd5b600082601f8301126135b057600080fd5b813560206135c56135c083613566565b613535565b82815260059290921b840181019181810190868411156135e457600080fd5b8286015b848110156136085780356135fb8161358a565b83529183019183016135e8565b509695505050505050565b600082601f83011261362457600080fd5b813560206136346135c083613566565b82815260059290921b8401810191818101908684111561365357600080fd5b8286015b848110156136085780358352918301918301613657565b600067ffffffffffffffff8211156136885761368861351f565b50601f01601f191660200190565b60006136a46135c08461366e565b90508281528383830111156136b857600080fd5b828260208301376000602084830101529392505050565b600082601f8301126136e057600080fd5b813560206136f06135c083613566565b82815260059290921b8401810191818101908684111561370f57600080fd5b8286015b8481101561360857803567ffffffffffffffff8111156137335760008081fd5b8701603f810189136137455760008081fd5b613756898683013560408401613696565b845250918301918301613713565b6000806000806080858703121561377a57600080fd5b843567ffffffffffffffff8082111561379257600080fd5b61379e8883890161359f565b955060208701359150808211156137b457600080fd5b6137c088838901613613565b945060408701359150808211156137d657600080fd5b506137e3878288016136cf565b949793965093946060013593505050565b600081518084526020808501945080840160005b8381101561382d5781516001600160a01b031687529582019590820190600101613808565b509495945050505050565b600081518084526020808501945080840160005b8381101561382d5781518752958201959082019060010161384c565b6000815180845260208085019450848260051b860182860160005b858110156138ad57838303895261389b8383516134e0565b98850198925090840190600101613883565b5090979650505050505050565b6080815260006138cd60808301876137f4565b82810360208401526138df8187613838565b905082810360408401526138f38186613868565b905082810360608401526111aa8185613868565b803560ff8116811461391857600080fd5b919050565b600080600080600060a0868803121561393557600080fd5b8535945061394560208701613907565b935061395360408701613907565b94979396509394606081013594506080013592915050565b634e487b7160e01b600052602160045260246000fd5b60208101600883106139a357634e487b7160e01b600052602160045260246000fd5b91905290565b600080604083850312156139bc57600080fd5b8235915060208301356139ce8161358a565b809150509250929050565b600080604083850312156139ec57600080fd5b823591506139fc60208401613907565b90509250929050565b60008060008060608587031215613a1b57600080fd5b84359350613a2b60208601613907565b9250604085013567ffffffffffffffff80821115613a4857600080fd5b818701915087601f830112613a5c57600080fd5b813581811115613a6b57600080fd5b886020828501011115613a7d57600080fd5b95989497505060200194505050565b600082601f830112613a9d57600080fd5b61198e83833560208501613696565b60008060008060808587031215613ac257600080fd5b843567ffffffffffffffff80821115613ada57600080fd5b613ae68883890161359f565b95506020870135915080821115613afc57600080fd5b613b0888838901613613565b94506040870135915080821115613b1e57600080fd5b613b2a888389016136cf565b93506060870135915080821115613b4057600080fd5b50613b4d87828801613a8c565b91505092959194509250565b600060208284031215613b6b57600080fd5b813561198e8161358a565b600082601f830112613b8757600080fd5b81356020613b976135c083613566565b82815260059290921b84018101918181019086841115613bb657600080fd5b8286015b8481101561360857803567ffffffffffffffff811115613bda5760008081fd5b613be88986838b0101613a8c565b845250918301918301613bba565b600080600080600060a08688031215613c0e57600080fd5b853567ffffffffffffffff80821115613c2657600080fd5b613c3289838a0161359f565b96506020880135915080821115613c4857600080fd5b613c5489838a01613613565b95506040880135915080821115613c6a57600080fd5b613c7689838a01613b76565b94506060880135915080821115613c8c57600080fd5b613c9889838a016136cf565b93506080880135915080821115613cae57600080fd5b50613cbb88828901613a8c565b9150509295509295909350565b60008060408385031215613cdb57600080fd5b8235613ce68161358a565b946020939093013593505050565b600181811c90821680613d0857607f821691505b60208210811415612bbe57634e487b7160e01b600052602260045260246000fd5b600060208284031215613d3b57600080fd5b5051919050565b634e487b7160e01b600052601160045260246000fd5b60008219821115613d6b57613d6b613d42565b500190565b634e487b7160e01b600052603260045260246000fd5b6001600160a01b038516815283602082015260a06040820152600060a082015260c060608201526000613dbc60c08301856134e0565b905082608083015295945050505050565b600060208284031215613ddf57600080fd5b8151801515811461198e57600080fd5b6000600019821415613e0357613e03613d42565b5060010190565b600082821015613e1c57613e1c613d42565b500390565b608081526000613e3460808301876137f4565b8281036020840152613e468187613838565b90508281036040840152613e5a8186613868565b91505082606083015295945050505050565b84815260ff8416602082015282604082015260806060820152600061155960808301846134e0565b60008251613ea68184602087016134b4565b9190910192915050565b600060208284031215613ec257600080fd5b81516bffffffffffffffffffffffff8116811461198e57600080fd5b600060208284031215613ef057600080fd5b815167ffffffffffffffff811115613f0757600080fd5b8201601f81018413613f1857600080fd5b8051613f266135c08261366e565b818152856020838501011115613f3b57600080fd5b6115718260208301602086016134b4565b600067ffffffffffffffff808316818516808303821115613f6f57613f6f613d42565b01949350505050565b60006101208b83526001600160a01b038b166020840152806040840152613fa18184018b6137f4565b90508281036060840152613fb5818a613838565b90508281036080840152613fc98189613868565b905082810360a0840152613fdd8188613868565b67ffffffffffffffff87811660c0860152861660e0850152838103610100850152905061400a81856134e0565b9c9b50505050505050505050505056fea164736f6c6343000809000a",
  "linkReferences": {},
  "deployedLinkReferences": {}
}