{
  "_format": "hh-sol-artifact-1",
  "contractName": "MyNftToken",
  "sourceName": "contracts/MyNftToken.sol",
  "abi": [
    {
      "inputs": [],
      "stateMutability": "nonpayable",
      "type": "constructor"
    },
    {
      "anonymous": false,
      "inputs": [
        {
          "indexed": true,
          "internalType": "address",
          "name": "owner",
          "type": "address"
        },
        {
          "indexed": true,
          "internalType": "address",
          "name": "approved",
          "type": "address"
        },
        {
          "indexed": true,
          "internalType": "uint256",
          "name": "tokenId",
          "type": "uint256"
        }
      ],
      "name": "Approval",
      "type": "event"
    },
    {
      "anonymous": false,
      "inputs": [
        {
          "indexed": true,
          "internalType": "address",
          "name": "owner",
          "type": "address"
        },
        {
          "indexed": true,
          "internalType": "address",
          "name": "operator",
          "type": "address"
        },
        {
          "indexed": false,
          "internalType": "bool",
          "name": "approved",
          "type": "bool"
        }
      ],
      "name": "ApprovalForAll",
      "type": "event"
    },
    {
      "anonymous": false,
      "inputs": [
        {
          "indexed": true,
          "internalType": "address",
          "name": "delegator",
          "type": "address"
        },
        {
          "indexed": true,
          "internalType": "address",
          "name": "fromDelegate",
          "type": "address"
        },
        {
          "indexed": true,
          "internalType": "address",
          "name": "toDelegate",
          "type": "address"
        }
      ],
      "name": "DelegateChanged",
      "type": "event"
    },
    {
      "anonymous": false,
      "inputs": [
        {
          "indexed": true,
          "internalType": "address",
          "name": "delegate",
          "type": "address"
        },
        {
          "indexed": false,
          "internalType": "uint256",
          "name": "previousBalance",
          "type": "uint256"
        },
        {
          "indexed": false,
          "internalType": "uint256",
          "name": "newBalance",
          "type": "uint256"
        }
      ],
      "name": "DelegateVotesChanged",
      "type": "event"
    },
    {
      "anonymous": false,
      "inputs": [
        {
          "indexed": true,
          "internalType": "address",
          "name": "previousOwner",
          "type": "address"
        },
        {
          "indexed": true,
          "internalType": "address",
          "name": "newOwner",
          "type": "address"
        }
      ],
      "name": "OwnershipTransferred",
      "type": "event"
    },
    {
      "anonymous": false,
      "inputs": [
        {
          "indexed": true,
          "internalType": "address",
          "name": "from",
          "type": "address"
        },
        {
          "indexed": true,
          "internalType": "address",
          "name": "to",
          "type": "address"
        },
        {
          "indexed": true,
          "internalType": "uint256",
          "name": "tokenId",
          "type": "uint256"
        }
      ],
      "name": "Transfer",
      "type": "event"
    },
    {
      "inputs": [],
      "name": "DELEGATION_TYPEHASH",
      "outputs": [
        {
          "internalType": "bytes32",
          "name": "",
          "type": "bytes32"
        }
      ],
      "stateMutability": "view",
      "type": "function"
    },
    {
      "inputs": [],
      "name": "DOMAIN_TYPEHASH",
      "outputs": [
        {
          "internalType": "bytes32",
          "name": "",
          "type": "bytes32"
        }
      ],
      "stateMutability": "view",
      "type": "function"
    },
    {
      "inputs": [
        {
          "internalType": "address",
          "name": "to",
          "type": "address"
        },
        {
          "internalType": "uint256",
          "name": "tokenId",
          "type": "uint256"
        }
      ],
      "name": "approve",
      "outputs": [],
      "stateMutability": "nonpayable",
      "type": "function"
    },
    {
      "inputs": [
        {
          "internalType": "address",
          "name": "owner",
          "type": "address"
        }
      ],
      "name": "balanceOf",
      "outputs": [
        {
          "internalType": "uint256",
          "name": "",
          "type": "uint256"
        }
      ],
      "stateMutability": "view",
      "type": "function"
    },
    {
      "inputs": [
        {
          "internalType": "address",
          "name": "",
          "type": "address"
        },
        {
          "internalType": "uint32",
          "name": "",
          "type": "uint32"
        }
      ],
      "name": "checkpoints",
      "outputs": [
        {
          "internalType": "uint32",
          "name": "fromBlock",
          "type": "uint32"
        },
        {
          "internalType": "uint96",
          "name": "votes",
          "type": "uint96"
        }
      ],
      "stateMutability": "view",
      "type": "function"
    },
    {
      "inputs": [],
      "name": "decimals",
      "outputs": [
        {
          "internalType": "uint8",
          "name": "",
          "type": "uint8"
        }
      ],
      "stateMutability": "view",
      "type": "function"
    },
    {
      "inputs": [
        {
          "internalType": "address",
          "name": "delegatee",
          "type": "address"
        }
      ],
      "name": "delegate",
      "outputs": [],
      "stateMutability": "nonpayable",
      "type": "function"
    },
    {
      "inputs": [
        {
          "internalType": "address",
          "name": "delegatee",
          "type": "address"
        },
        {
          "internalType": "uint256",
          "name": "nonce",
          "type": "uint256"
        },
        {
          "internalType": "uint256",
          "name": "expiry",
          "type": "uint256"
        },
        {
          "internalType": "uint8",
          "name": "v",
          "type": "uint8"
        },
        {
          "internalType": "bytes32",
          "name": "r",
          "type": "bytes32"
        },
        {
          "internalType": "bytes32",
          "name": "s",
          "type": "bytes32"
        }
      ],
      "name": "delegateBySig",
      "outputs": [],
      "stateMutability": "nonpayable",
      "type": "function"
    },
    {
      "inputs": [
        {
          "internalType": "address",
          "name": "delegator",
          "type": "address"
        }
      ],
      "name": "delegates",
      "outputs": [
        {
          "internalType": "address",
          "name": "",
          "type": "address"
        }
      ],
      "stateMutability": "view",
      "type": "function"
    },
    {
      "inputs": [
        {
          "internalType": "uint256",
          "name": "tokenId",
          "type": "uint256"
        }
      ],
      "name": "getApproved",
      "outputs": [
        {
          "internalType": "address",
          "name": "",
          "type": "address"
        }
      ],
      "stateMutability": "view",
      "type": "function"
    },
    {
      "inputs": [
        {
          "internalType": "address",
          "name": "account",
          "type": "address"
        }
      ],
      "name": "getCurrentVotes",
      "outputs": [
        {
          "internalType": "uint96",
          "name": "",
          "type": "uint96"
        }
      ],
      "stateMutability": "view",
      "type": "function"
    },
    {
      "inputs": [
        {
          "internalType": "address",
          "name": "account",
          "type": "address"
        },
        {
          "internalType": "uint256",
          "name": "blockNumber",
          "type": "uint256"
        }
      ],
      "name": "getPriorVotes",
      "outputs": [
        {
          "internalType": "uint96",
          "name": "",
          "type": "uint96"
        }
      ],
      "stateMutability": "view",
      "type": "function"
    },
    {
      "inputs": [
        {
          "internalType": "address",
          "name": "owner",
          "type": "address"
        },
        {
          "internalType": "address",
          "name": "operator",
          "type": "address"
        }
      ],
      "name": "isApprovedForAll",
      "outputs": [
        {
          "internalType": "bool",
          "name": "",
          "type": "bool"
        }
      ],
      "stateMutability": "view",
      "type": "function"
    },
    {
      "inputs": [],
      "name": "name",
      "outputs": [
        {
          "internalType": "string",
          "name": "",
          "type": "string"
        }
      ],
      "stateMutability": "view",
      "type": "function"
    },
    {
      "inputs": [
        {
          "internalType": "address",
          "name": "",
          "type": "address"
        }
      ],
      "name": "nonces",
      "outputs": [
        {
          "internalType": "uint256",
          "name": "",
          "type": "uint256"
        }
      ],
      "stateMutability": "view",
      "type": "function"
    },
    {
      "inputs": [
        {
          "internalType": "address",
          "name": "",
          "type": "address"
        }
      ],
      "name": "numCheckpoints",
      "outputs": [
        {
          "internalType": "uint32",
          "name": "",
          "type": "uint32"
        }
      ],
      "stateMutability": "view",
      "type": "function"
    },
    {
      "inputs": [],
      "name": "owner",
      "outputs": [
        {
          "internalType": "address",
          "name": "",
          "type": "address"
        }
      ],
      "stateMutability": "view",
      "type": "function"
    },
    {
      "inputs": [
        {
          "internalType": "uint256",
          "name": "tokenId",
          "type": "uint256"
        }
      ],
      "name": "ownerOf",
      "outputs": [
        {
          "internalType": "address",
          "name": "",
          "type": "address"
        }
      ],
      "stateMutability": "view",
      "type": "function"
    },
    {
      "inputs": [],
      "name": "renounceOwnership",
      "outputs": [],
      "stateMutability": "nonpayable",
      "type": "function"
    },
    {
      "inputs": [
        {
          "internalType": "address",
          "name": "to",
          "type": "address"
        }
      ],
      "name": "safeMint",
      "outputs": [],
      "stateMutability": "nonpayable",
      "type": "function"
    },
    {
      "inputs": [
        {
          "internalType": "address",
          "name": "from",
          "type": "address"
        },
        {
          "internalType": "address",
          "name": "to",
          "type": "address"
        },
        {
          "internalType": "uint256",
          "name": "tokenId",
          "type": "uint256"
        }
      ],
      "name": "safeTransferFrom",
      "outputs": [],
      "stateMutability": "nonpayable",
      "type": "function"
    },
    {
      "inputs": [
        {
          "internalType": "address",
          "name": "from",
          "type": "address"
        },
        {
          "internalType": "address",
          "name": "to",
          "type": "address"
        },
        {
          "internalType": "uint256",
          "name": "tokenId",
          "type": "uint256"
        },
        {
          "internalType": "bytes",
          "name": "_data",
          "type": "bytes"
        }
      ],
      "name": "safeTransferFrom",
      "outputs": [],
      "stateMutability": "nonpayable",
      "type": "function"
    },
    {
      "inputs": [
        {
          "internalType": "address",
          "name": "operator",
          "type": "address"
        },
        {
          "internalType": "bool",
          "name": "approved",
          "type": "bool"
        }
      ],
      "name": "setApprovalForAll",
      "outputs": [],
      "stateMutability": "nonpayable",
      "type": "function"
    },
    {
      "inputs": [
        {
          "internalType": "bytes4",
          "name": "interfaceId",
          "type": "bytes4"
        }
      ],
      "name": "supportsInterface",
      "outputs": [
        {
          "internalType": "bool",
          "name": "",
          "type": "bool"
        }
      ],
      "stateMutability": "view",
      "type": "function"
    },
    {
      "inputs": [],
      "name": "symbol",
      "outputs": [
        {
          "internalType": "string",
          "name": "",
          "type": "string"
        }
      ],
      "stateMutability": "view",
      "type": "function"
    },
    {
      "inputs": [
        {
          "internalType": "uint256",
          "name": "index",
          "type": "uint256"
        }
      ],
      "name": "tokenByIndex",
      "outputs": [
        {
          "internalType": "uint256",
          "name": "",
          "type": "uint256"
        }
      ],
      "stateMutability": "view",
      "type": "function"
    },
    {
      "inputs": [
        {
          "internalType": "address",
          "name": "owner",
          "type": "address"
        },
        {
          "internalType": "uint256",
          "name": "index",
          "type": "uint256"
        }
      ],
      "name": "tokenOfOwnerByIndex",
      "outputs": [
        {
          "internalType": "uint256",
          "name": "",
          "type": "uint256"
        }
      ],
      "stateMutability": "view",
      "type": "function"
    },
    {
      "inputs": [
        {
          "internalType": "uint256",
          "name": "tokenId",
          "type": "uint256"
        }
      ],
      "name": "tokenURI",
      "outputs": [
        {
          "internalType": "string",
          "name": "",
          "type": "string"
        }
      ],
      "stateMutability": "view",
      "type": "function"
    },
    {
      "inputs": [],
      "name": "totalSupply",
      "outputs": [
        {
          "internalType": "uint256",
          "name": "",
          "type": "uint256"
        }
      ],
      "stateMutability": "view",
      "type": "function"
    },
    {
      "inputs": [
        {
          "internalType": "address",
          "name": "from",
          "type": "address"
        },
        {
          "internalType": "address",
          "name": "to",
          "type": "address"
        },
        {
          "internalType": "uint256",
          "name": "tokenId",
          "type": "uint256"
        }
      ],
      "name": "transferFrom",
      "outputs": [],
      "stateMutability": "nonpayable",
      "type": "function"
    },
    {
      "inputs": [
        {
          "internalType": "address",
          "name": "newOwner",
          "type": "address"
        }
      ],
      "name": "transferOwnership",
      "outputs": [],
      "stateMutability": "nonpayable",
      "type": "function"
    },
    {
      "inputs": [
        {
          "internalType": "address",
          "name": "delegator",
          "type": "address"
        }
      ],
      "name": "votesToDelegate",
      "outputs": [
        {
          "internalType": "uint96",
          "name": "",
          "type": "uint96"
        }
      ],
      "stateMutability": "view",
      "type": "function"
    }
  ],
  "bytecode": "0x60806040523480156200001157600080fd5b506040518060400160405280600c81526020016b26bc9027232a102a37b5b2b760a11b815250604051806040016040528060048152602001631353919560e21b8152506200006e62000068620000a260201b60201c565b620000a6565b815162000083906001906020850190620000f6565b50805162000099906002906020840190620000f6565b505050620001d9565b3390565b600080546001600160a01b038381166001600160a01b0319831681178455604051919092169283917f8be0079c531659141344cd1fd0a4f28419497f9722a3daafe3b4186f6b6457e09190a35050565b82805462000104906200019c565b90600052602060002090601f01602090048101928262000128576000855562000173565b82601f106200014357805160ff191683800117855562000173565b8280016001018555821562000173579182015b828111156200017357825182559160200191906001019062000156565b506200018192915062000185565b5090565b5b8082111562000181576000815560010162000186565b600181811c90821680620001b157607f821691505b60208210811415620001d357634e487b7160e01b600052602260045260246000fd5b50919050565b612c4980620001e96000396000f3fe608060405234801561001057600080fd5b50600436106101f05760003560e01c806370a082311161010f578063b88d4fde116100a2578063e9580e9111610071578063e9580e911461049d578063e985e9c5146104b0578063f1127ed8146104ec578063f2fde38b1461055457600080fd5b8063b88d4fde1461043d578063c3cda52014610450578063c87b56dd14610463578063e7a324dc1461047657600080fd5b80638da5cb5b116100de5780638da5cb5b146103fe57806395d89b411461040f578063a22cb46514610417578063b4b5ea571461042a57600080fd5b806370a0823114610398578063715018a6146103ab578063782d6fe1146103b35780637ecebe00146103de57600080fd5b8063313ce56711610187578063587cde1e11610156578063587cde1e146103245780635c19a95c146103375780636352211e1461034a5780636fcfff451461035d57600080fd5b8063313ce567146102d157806340d097c3146102eb57806342842e0e146102fe5780634f6ccce71461031157600080fd5b806318160ddd116101c357806318160ddd1461027257806320606b701461028457806323b872dd146102ab5780632f745c59146102be57600080fd5b806301ffc9a7146101f557806306fdde031461021d578063081812fc14610232578063095ea7b31461025d575b600080fd5b6102086102033660046125e4565b610567565b60405190151581526020015b60405180910390f35b610225610592565b6040516102149190612659565b61024561024036600461266c565b610624565b6040516001600160a01b039091168152602001610214565b61027061026b3660046126a1565b6106be565b005b6009545b604051908152602001610214565b6102767f8cad95687ba82c2ce50e74f7b754645e5117c3a5bec8151c0726d5857980a86681565b6102706102b93660046126cb565b6107d4565b6102766102cc3660046126a1565b61085b565b6102d9600081565b60405160ff9091168152602001610214565b6102706102f9366004612707565b610903565b61027061030c3660046126cb565b610980565b61027661031f36600461266c565b61099b565b610245610332366004612707565b610a3f565b610270610345366004612707565b610a71565b61024561035836600461266c565b610a8c565b61038361036b366004612707565b600d6020526000908152604090205463ffffffff1681565b60405163ffffffff9091168152602001610214565b6102766103a6366004612707565b610b17565b610270610bb1565b6103c66103c13660046126a1565b610c17565b6040516001600160601b039091168152602001610214565b6102766103ec366004612707565b600e6020526000908152604090205481565b6000546001600160a01b0316610245565b610225610eb7565b610270610425366004612722565b610ec6565b6103c6610438366004612707565b610f8b565b61027061044b366004612774565b611009565b61027061045e366004612850565b611097565b61022561047136600461266c565b6113ae565b6102767fe48329057bfd03d55e49b547132e39cffd9c1820ad7b9d4c5307691425d15adf81565b6103c66104ab366004612707565b6114a3565b6102086104be3660046128b0565b6001600160a01b03918216600090815260066020908152604080832093909416825291909152205460ff1690565b6105306104fa3660046128e3565b600c60209081526000928352604080842090915290825290205463ffffffff81169064010000000090046001600160601b031682565b6040805163ffffffff90931683526001600160601b03909116602083015201610214565b610270610562366004612707565b6114cf565b60006001600160e01b0319821663780e9d6360e01b148061058c575061058c826115ae565b92915050565b6060600180546105a190612918565b80601f01602080910402602001604051908101604052809291908181526020018280546105cd90612918565b801561061a5780601f106105ef5761010080835404028352916020019161061a565b820191906000526020600020905b8154815290600101906020018083116105fd57829003601f168201915b5050505050905090565b6000818152600360205260408120546001600160a01b03166106a25760405162461bcd60e51b815260206004820152602c60248201527f4552433732313a20617070726f76656420717565727920666f72206e6f6e657860448201526b34b9ba32b73a103a37b5b2b760a11b60648201526084015b60405180910390fd5b506000908152600560205260409020546001600160a01b031690565b60006106c982610a8c565b9050806001600160a01b0316836001600160a01b031614156107375760405162461bcd60e51b815260206004820152602160248201527f4552433732313a20617070726f76616c20746f2063757272656e74206f776e656044820152603960f91b6064820152608401610699565b336001600160a01b0382161480610753575061075381336104be565b6107c55760405162461bcd60e51b815260206004820152603860248201527f4552433732313a20617070726f76652063616c6c6572206973206e6f74206f7760448201527f6e6572206e6f7220617070726f76656420666f7220616c6c00000000000000006064820152608401610699565b6107cf83836115fe565b505050565b6107de338261166c565b6108505760405162461bcd60e51b815260206004820152603160248201527f4552433732313a207472616e736665722063616c6c6572206973206e6f74206f60448201527f776e6572206e6f7220617070726f7665640000000000000000000000000000006064820152608401610699565b6107cf838383611763565b600061086683610b17565b82106108da5760405162461bcd60e51b815260206004820152602b60248201527f455243373231456e756d657261626c653a206f776e657220696e646578206f7560448201527f74206f6620626f756e64730000000000000000000000000000000000000000006064820152608401610699565b506001600160a01b03919091166000908152600760209081526040808320938352929052205490565b6000546001600160a01b0316331461095d5760405162461bcd60e51b815260206004820181905260248201527f4f776e61626c653a2063616c6c6572206973206e6f7420746865206f776e65726044820152606401610699565b61096f8161096a600f5490565b611922565b61097d600f80546001019055565b50565b6107cf83838360405180602001604052806000815250611009565b60006109a660095490565b8210610a1a5760405162461bcd60e51b815260206004820152602c60248201527f455243373231456e756d657261626c653a20676c6f62616c20696e646578206f60448201527f7574206f6620626f756e647300000000000000000000000000000000000000006064820152608401610699565b60098281548110610a2d57610a2d612953565b90600052602060002001549050919050565b6001600160a01b038082166000908152600b60205260408120549091168015610a685780610a6a565b825b9392505050565b6001600160a01b038116610a825750335b61097d3382611940565b6000818152600360205260408120546001600160a01b03168061058c5760405162461bcd60e51b815260206004820152602960248201527f4552433732313a206f776e657220717565727920666f72206e6f6e657869737460448201527f656e7420746f6b656e00000000000000000000000000000000000000000000006064820152608401610699565b60006001600160a01b038216610b955760405162461bcd60e51b815260206004820152602a60248201527f4552433732313a2062616c616e636520717565727920666f7220746865207a6560448201527f726f2061646472657373000000000000000000000000000000000000000000006064820152608401610699565b506001600160a01b031660009081526004602052604090205490565b6000546001600160a01b03163314610c0b5760405162461bcd60e51b815260206004820181905260248201527f4f776e61626c653a2063616c6c6572206973206e6f7420746865206f776e65726044820152606401610699565b610c1560006119c0565b565b6000438210610c8e5760405162461bcd60e51b815260206004820152603760248201527f455243373231436865636b706f696e7461626c653a3a6765745072696f72566f60448201527f7465733a206e6f74207965742064657465726d696e65640000000000000000006064820152608401610699565b6001600160a01b0383166000908152600d602052604090205463ffffffff1680610cbc57600091505061058c565b6001600160a01b0384166000908152600c602052604081208491610ce160018561297f565b63ffffffff90811682526020820192909252604001600020541611610d55576001600160a01b0384166000908152600c6020526040812090610d2460018461297f565b63ffffffff16815260208101919091526040016000205464010000000090046001600160601b0316915061058c9050565b6001600160a01b0384166000908152600c6020908152604080832083805290915290205463ffffffff16831015610d9057600091505061058c565b600080610d9e60018461297f565b90505b8163ffffffff168163ffffffff161115610e715760006002610dc3848461297f565b610dcd91906129ba565b610dd7908361297f565b6001600160a01b0388166000908152600c6020908152604080832063ffffffff8581168552908352928190208151808301909252549283168082526401000000009093046001600160601b031691810191909152919250871415610e455760200151945061058c9350505050565b805163ffffffff16871115610e5c57819350610e6a565b610e6760018361297f565b92505b5050610da1565b506001600160a01b0385166000908152600c6020908152604080832063ffffffff909416835292905220546001600160601b036401000000009091041691505092915050565b6060600280546105a190612918565b6001600160a01b038216331415610f1f5760405162461bcd60e51b815260206004820152601960248201527f4552433732313a20617070726f766520746f2063616c6c6572000000000000006044820152606401610699565b3360008181526006602090815260408083206001600160a01b03871680855290835292819020805460ff191686151590811790915590519081529192917f17307eab39ab6107e8899845ad3d59bd9653f200f220920489ca2b5937696c31910160405180910390a35050565b6001600160a01b0381166000908152600d602052604081205463ffffffff1680610fb6576000610a6a565b6001600160a01b0383166000908152600c6020526040812090610fda60018461297f565b63ffffffff16815260208101919091526040016000205464010000000090046001600160601b03169392505050565b611013338361166c565b6110855760405162461bcd60e51b815260206004820152603160248201527f4552433732313a207472616e736665722063616c6c6572206973206e6f74206f60448201527f776e6572206e6f7220617070726f7665640000000000000000000000000000006064820152608401610699565b61109184848484611a10565b50505050565b60007f8cad95687ba82c2ce50e74f7b754645e5117c3a5bec8151c0726d5857980a8666110c2610592565b805190602001206110d04690565b60408051602080820195909552808201939093526060830191909152306080808401919091528151808403909101815260a0830182528051908401207fe48329057bfd03d55e49b547132e39cffd9c1820ad7b9d4c5307691425d15adf60c08401526001600160a01b038b1660e084015261010083018a90526101208084018a90528251808503909101815261014084019092528151919093012061190160f01b610160830152610162820183905261018282018190529192506000906101a20160408051601f198184030181528282528051602091820120600080855291840180845281905260ff8a169284019290925260608301889052608083018790529092509060019060a0016020604051602081039080840390855afa1580156111fc573d6000803e3d6000fd5b5050604051601f1901519150506001600160a01b0381166112855760405162461bcd60e51b815260206004820152603660248201527f455243373231436865636b706f696e7461626c653a3a64656c6567617465427960448201527f5369673a20696e76616c6964207369676e6174757265000000000000000000006064820152608401610699565b6001600160a01b0381166000908152600e602052604081208054916112a9836129dd565b9190505589146113215760405162461bcd60e51b815260206004820152603260248201527f455243373231436865636b706f696e7461626c653a3a64656c6567617465427960448201527f5369673a20696e76616c6964206e6f6e636500000000000000000000000000006064820152608401610699565b874211156113975760405162461bcd60e51b815260206004820152603660248201527f455243373231436865636b706f696e7461626c653a3a64656c6567617465427960448201527f5369673a207369676e61747572652065787069726564000000000000000000006064820152608401610699565b6113a1818b611940565b505050505b505050505050565b6000818152600360205260409020546060906001600160a01b031661143b5760405162461bcd60e51b815260206004820152602f60248201527f4552433732314d657461646174613a2055524920717565727920666f72206e6f60448201527f6e6578697374656e7420746f6b656e00000000000000000000000000000000006064820152608401610699565b600061145260408051602081019091526000815290565b905060008151116114725760405180602001604052806000815250610a6a565b8061147c84611a8e565b60405160200161148d9291906129f8565b6040516020818303038152906040529392505050565b600061058c6114b183610b17565b6040518060600160405280603d8152602001612bc9603d9139611ba4565b6000546001600160a01b031633146115295760405162461bcd60e51b815260206004820181905260248201527f4f776e61626c653a2063616c6c6572206973206e6f7420746865206f776e65726044820152606401610699565b6001600160a01b0381166115a55760405162461bcd60e51b815260206004820152602660248201527f4f776e61626c653a206e6577206f776e657220697320746865207a65726f206160448201527f64647265737300000000000000000000000000000000000000000000000000006064820152608401610699565b61097d816119c0565b60006001600160e01b031982166380ac58cd60e01b14806115df57506001600160e01b03198216635b5e139f60e01b145b8061058c57506301ffc9a760e01b6001600160e01b031983161461058c565b600081815260056020526040902080546001600160a01b0319166001600160a01b038416908117909155819061163382610a8c565b6001600160a01b03167f8c5be1e5ebec7d5bd14f71427d1e84f3dd0314c0f7b2291e5b200ac8c7c3b92560405160405180910390a45050565b6000818152600360205260408120546001600160a01b03166116e55760405162461bcd60e51b815260206004820152602c60248201527f4552433732313a206f70657261746f7220717565727920666f72206e6f6e657860448201526b34b9ba32b73a103a37b5b2b760a11b6064820152608401610699565b60006116f083610a8c565b9050806001600160a01b0316846001600160a01b0316148061172b5750836001600160a01b031661172084610624565b6001600160a01b0316145b8061175b57506001600160a01b0380821660009081526006602090815260408083209388168352929052205460ff165b949350505050565b826001600160a01b031661177682610a8c565b6001600160a01b0316146117f25760405162461bcd60e51b815260206004820152602960248201527f4552433732313a207472616e73666572206f6620746f6b656e2074686174206960448201527f73206e6f74206f776e00000000000000000000000000000000000000000000006064820152608401610699565b6001600160a01b0382166118545760405162461bcd60e51b8152602060048201526024808201527f4552433732313a207472616e7366657220746f20746865207a65726f206164646044820152637265737360e01b6064820152608401610699565b61185f838383611bdc565b61186a6000826115fe565b6001600160a01b0383166000908152600460205260408120805460019290611893908490612a27565b90915550506001600160a01b03821660009081526004602052604081208054600192906118c1908490612a3e565b909155505060008181526003602052604080822080546001600160a01b0319166001600160a01b0386811691821790925591518493918716917fddf252ad1be2c89b69c2b068fc378daa952ba7f163c4a11628f55a4df523b3ef91a4505050565b61193c828260405180602001604052806000815250611c03565b5050565b600061194b83610a3f565b6001600160a01b038481166000818152600b602052604080822080546001600160a01b031916888616908117909155905194955093928516927f3134e8a2e6d97e929a7e54011ea5485d7d196dd5f0ba4d4ef95803e8e3fc257f9190a460006119b3846114a3565b9050611091828483611c81565b600080546001600160a01b038381166001600160a01b0319831681178455604051919092169283917f8be0079c531659141344cd1fd0a4f28419497f9722a3daafe3b4186f6b6457e09190a35050565b611a1b848484611763565b611a2784848484611e2f565b6110915760405162461bcd60e51b815260206004820152603260248201527f4552433732313a207472616e7366657220746f206e6f6e20455243373231526560448201527131b2b4bb32b91034b6b83632b6b2b73a32b960711b6064820152608401610699565b606081611ab25750506040805180820190915260018152600360fc1b602082015290565b8160005b8115611adc5780611ac6816129dd565b9150611ad59050600a83612a56565b9150611ab6565b60008167ffffffffffffffff811115611af757611af761275e565b6040519080825280601f01601f191660200182016040528015611b21576020820181803683370190505b5090505b841561175b57611b36600183612a27565b9150611b43600a86612a6a565b611b4e906030612a3e565b60f81b818381518110611b6357611b63612953565b60200101907effffffffffffffffffffffffffffffffffffffffffffffffffffffffffffff1916908160001a905350611b9d600a86612a56565b9450611b25565b6000816c010000000000000000000000008410611bd45760405162461bcd60e51b81526004016106999190612659565b509192915050565b611be7838383611f87565b6107cf611bf384610a3f565b611bfc84610a3f565b6001611c81565b611c0d838361203f565b611c1a6000848484611e2f565b6107cf5760405162461bcd60e51b815260206004820152603260248201527f4552433732313a207472616e7366657220746f206e6f6e20455243373231526560448201527131b2b4bb32b91034b6b83632b6b2b73a32b960711b6064820152608401610699565b816001600160a01b0316836001600160a01b031614158015611cac57506000816001600160601b0316115b156107cf576001600160a01b03831615611d72576001600160a01b0383166000908152600d602052604081205463ffffffff169081611cec576000611d39565b6001600160a01b0385166000908152600c6020526040812090611d1060018561297f565b63ffffffff16815260208101919091526040016000205464010000000090046001600160601b03165b90506000611d608285604051806060016040528060378152602001612c066037913961218d565b9050611d6e868484846121cf565b5050505b6001600160a01b038216156107cf576001600160a01b0382166000908152600d602052604081205463ffffffff169081611dad576000611dfa565b6001600160a01b0384166000908152600c6020526040812090611dd160018561297f565b63ffffffff16815260208101919091526040016000205464010000000090046001600160601b03165b90506000611e218285604051806060016040528060368152602001612b4f603691396123c9565b90506113a6858484846121cf565b60006001600160a01b0384163b15611f7c57604051630a85bd0160e11b81526001600160a01b0385169063150b7a0290611e73903390899088908890600401612a7e565b602060405180830381600087803b158015611e8d57600080fd5b505af1925050508015611ebd575060408051601f3d908101601f19168201909252611eba91810190612aba565b60015b611f62573d808015611eeb576040519150601f19603f3d011682016040523d82523d6000602084013e611ef0565b606091505b508051611f5a5760405162461bcd60e51b815260206004820152603260248201527f4552433732313a207472616e7366657220746f206e6f6e20455243373231526560448201527131b2b4bb32b91034b6b83632b6b2b73a32b960711b6064820152608401610699565b805181602001fd5b6001600160e01b031916630a85bd0160e11b14905061175b565b506001949350505050565b6001600160a01b038316611fe257611fdd81600980546000838152600a60205260408120829055600182018355919091527f6e1540171b6c0c960b71a7020d9f60077f6af931a8bbf590da0223dacf75c7af0155565b612005565b816001600160a01b0316836001600160a01b031614612005576120058382612416565b6001600160a01b03821661201c576107cf816124b3565b826001600160a01b0316826001600160a01b0316146107cf576107cf8282612562565b6001600160a01b0382166120955760405162461bcd60e51b815260206004820181905260248201527f4552433732313a206d696e7420746f20746865207a65726f20616464726573736044820152606401610699565b6000818152600360205260409020546001600160a01b0316156120fa5760405162461bcd60e51b815260206004820152601c60248201527f4552433732313a20746f6b656e20616c7265616479206d696e746564000000006044820152606401610699565b61210660008383611bdc565b6001600160a01b038216600090815260046020526040812080546001929061212f908490612a3e565b909155505060008181526003602052604080822080546001600160a01b0319166001600160a01b03861690811790915590518392907fddf252ad1be2c89b69c2b068fc378daa952ba7f163c4a11628f55a4df523b3ef908290a45050565b6000836001600160601b0316836001600160601b0316111582906121c45760405162461bcd60e51b81526004016106999190612659565b5061175b8385612ad7565b60006121f343604051806080016040528060448152602001612b85604491396125a6565b905060008463ffffffff1611801561224d57506001600160a01b0385166000908152600c6020526040812063ffffffff83169161223160018861297f565b63ffffffff908116825260208201929092526040016000205416145b156122c2576001600160a01b0385166000908152600c60205260408120839161227760018861297f565b63ffffffff168152602081019190915260400160002080546001600160601b0392909216640100000000026fffffffffffffffffffffffff0000000019909216919091179055612374565b60408051808201825263ffffffff80841682526001600160601b0380861660208085019182526001600160a01b038b166000908152600c82528681208b8616825290915294909420925183549451909116640100000000026fffffffffffffffffffffffffffffffff19909416911617919091179055612343846001612af7565b6001600160a01b0386166000908152600d60205260409020805463ffffffff191663ffffffff929092169190911790555b604080516001600160601b038086168252841660208201526001600160a01b038716917fdec2bacdd2f05b59de34da9b523dff8be42e5e38e818c82fdb0bae774387a724910160405180910390a25050505050565b6000806123d68486612b16565b9050846001600160601b0316816001600160601b03161015839061240d5760405162461bcd60e51b81526004016106999190612659565b50949350505050565b6000600161242384610b17565b61242d9190612a27565b600083815260086020526040902054909150808214612480576001600160a01b03841660009081526007602090815260408083208584528252808320548484528184208190558352600890915290208190555b5060009182526008602090815260408084208490556001600160a01b039094168352600781528383209183525290812055565b6009546000906124c590600190612a27565b6000838152600a6020526040812054600980549394509092849081106124ed576124ed612953565b90600052602060002001549050806009838154811061250e5761250e612953565b6000918252602080832090910192909255828152600a9091526040808220849055858252812055600980548061254657612546612b38565b6001900381819060005260206000200160009055905550505050565b600061256d83610b17565b6001600160a01b039093166000908152600760209081526040808320868452825280832085905593825260089052919091209190915550565b6000816401000000008410611bd45760405162461bcd60e51b81526004016106999190612659565b6001600160e01b03198116811461097d57600080fd5b6000602082840312156125f657600080fd5b8135610a6a816125ce565b60005b8381101561261c578181015183820152602001612604565b838111156110915750506000910152565b60008151808452612645816020860160208601612601565b601f01601f19169290920160200192915050565b602081526000610a6a602083018461262d565b60006020828403121561267e57600080fd5b5035919050565b80356001600160a01b038116811461269c57600080fd5b919050565b600080604083850312156126b457600080fd5b6126bd83612685565b946020939093013593505050565b6000806000606084860312156126e057600080fd5b6126e984612685565b92506126f760208501612685565b9150604084013590509250925092565b60006020828403121561271957600080fd5b610a6a82612685565b6000806040838503121561273557600080fd5b61273e83612685565b91506020830135801515811461275357600080fd5b809150509250929050565b634e487b7160e01b600052604160045260246000fd5b6000806000806080858703121561278a57600080fd5b61279385612685565b93506127a160208601612685565b925060408501359150606085013567ffffffffffffffff808211156127c557600080fd5b818701915087601f8301126127d957600080fd5b8135818111156127eb576127eb61275e565b604051601f8201601f19908116603f011681019083821181831017156128135761281361275e565b816040528281528a602084870101111561282c57600080fd5b82602086016020830137600060208483010152809550505050505092959194509250565b60008060008060008060c0878903121561286957600080fd5b61287287612685565b95506020870135945060408701359350606087013560ff8116811461289657600080fd5b9598949750929560808101359460a0909101359350915050565b600080604083850312156128c357600080fd5b6128cc83612685565b91506128da60208401612685565b90509250929050565b600080604083850312156128f657600080fd5b6128ff83612685565b9150602083013563ffffffff8116811461275357600080fd5b600181811c9082168061292c57607f821691505b6020821081141561294d57634e487b7160e01b600052602260045260246000fd5b50919050565b634e487b7160e01b600052603260045260246000fd5b634e487b7160e01b600052601160045260246000fd5b600063ffffffff8381169083168181101561299c5761299c612969565b039392505050565b634e487b7160e01b600052601260045260246000fd5b600063ffffffff808416806129d1576129d16129a4565b92169190910492915050565b60006000198214156129f1576129f1612969565b5060010190565b60008351612a0a818460208801612601565b835190830190612a1e818360208801612601565b01949350505050565b600082821015612a3957612a39612969565b500390565b60008219821115612a5157612a51612969565b500190565b600082612a6557612a656129a4565b500490565b600082612a7957612a796129a4565b500690565b60006001600160a01b03808716835280861660208401525083604083015260806060830152612ab0608083018461262d565b9695505050505050565b600060208284031215612acc57600080fd5b8151610a6a816125ce565b60006001600160601b038381169083168181101561299c5761299c612969565b600063ffffffff808316818516808303821115612a1e57612a1e612969565b60006001600160601b03808316818516808303821115612a1e57612a1e612969565b634e487b7160e01b600052603160045260246000fdfe455243373231436865636b706f696e7461626c653a3a5f6d6f766544656c6567617465733a20616d6f756e74206f766572666c6f7773455243373231436865636b706f696e7461626c653a3a5f7772697465436865636b706f696e743a20626c6f636b206e756d62657220657863656564732033322062697473455243373231436865636b706f696e7461626c653a3a766f746573546f44656c65676174653a20616d6f756e7420657863656564732039362062697473455243373231436865636b706f696e7461626c653a3a5f6d6f766544656c6567617465733a20616d6f756e7420756e646572666c6f7773a164736f6c6343000809000a",
  "linkReferences": {},
  "deployedLinkReferences": {}
}